{
  "address": "0x2b6843c8B9cb2D49D8963Dba5f8ABF9597D74062",
  "abi": [
    {
      "inputs": [
        {
          "internalType": "address",
          "name": "exampleExternalContractAddress",
          "type": "address"
        }
      ],
      "stateMutability": "nonpayable",
      "type": "constructor"
    },
    {
      "anonymous": false,
      "inputs": [
        {
          "indexed": false,
          "internalType": "address",
          "name": "userAddress",
          "type": "address"
        },
        {
          "indexed": false,
          "internalType": "uint256",
          "name": "val",
          "type": "uint256"
        }
      ],
      "name": "Stake",
      "type": "event"
    },
    {
      "inputs": [
        {
          "internalType": "address",
          "name": "",
          "type": "address"
        }
      ],
      "name": "balances",
      "outputs": [
        {
          "internalType": "uint256",
          "name": "",
          "type": "uint256"
        }
      ],
      "stateMutability": "view",
      "type": "function"
    },
    {
      "inputs": [],
      "name": "deadline",
      "outputs": [
        {
          "internalType": "uint256",
          "name": "",
          "type": "uint256"
        }
      ],
      "stateMutability": "view",
      "type": "function"
    },
    {
      "inputs": [],
      "name": "exampleExternalContract",
      "outputs": [
        {
          "internalType": "contract ExampleExternalContract",
          "name": "",
          "type": "address"
        }
      ],
      "stateMutability": "view",
      "type": "function"
    },
    {
      "inputs": [],
      "name": "execute",
      "outputs": [],
      "stateMutability": "nonpayable",
      "type": "function"
    },
    {
      "inputs": [],
      "name": "openForWithdraw",
      "outputs": [
        {
          "internalType": "bool",
          "name": "",
          "type": "bool"
        }
      ],
      "stateMutability": "view",
      "type": "function"
    },
    {
      "inputs": [],
      "name": "stake",
      "outputs": [],
      "stateMutability": "payable",
      "type": "function"
    },
    {
      "inputs": [],
      "name": "threshold",
      "outputs": [
        {
          "internalType": "uint256",
          "name": "",
          "type": "uint256"
        }
      ],
      "stateMutability": "view",
      "type": "function"
    },
    {
      "inputs": [],
      "name": "timeLeft",
      "outputs": [
        {
          "internalType": "uint256",
          "name": "",
          "type": "uint256"
        }
      ],
      "stateMutability": "view",
      "type": "function"
    },
    {
      "inputs": [],
      "name": "withdraw",
      "outputs": [],
      "stateMutability": "nonpayable",
      "type": "function"
    },
    {
      "stateMutability": "payable",
      "type": "receive"
    }
  ],
  "transactionHash": "0x0186d62f92a4d74b9f1a5de273a09b5b22467b27035afde3808c5de5373d4bd3",
  "args": [
    "0x289F5E6FC1886A638920B5D8322c5A4579a80747"
  ],
  "numDeployments": 1,
  "solcInputHash": "ec14dceff5b83ec6b1aa826c466bfef0",
  "bytecode": "0x608060405261000f42604861009f565b6003556004805460ff1916905534801561002857600080fd5b5060405161080c38038061080c83398101604081905261004791610071565b6001600081905580546001600160a01b0319166001600160a01b03929092169190911790556100c3565b600060208284031215610082578081fd5b81516001600160a01b0381168114610098578182fd5b9392505050565b600082198211156100be57634e487b7160e01b81526011600452602481fd5b500190565b61073a806100d26000396000f3fe60806040526004361061008a5760003560e01c80633ccfd60b116100595780633ccfd60b1461015b57806342cde4e814610170578063614619541461018c5780639876a643146101a15780639f75f227146101cb57600080fd5b80631300a6d1146100f057806327e235e31461011857806329dcb0cf146101455780633a4b66f1146100e157600080fd5b366100eb574260035410156100e15760405162461bcd60e51b8152602060048201526018602482015277646561646c696e6520686173206d657420616c726561647960401b60448201526064015b60405180910390fd5b6100e9610203565b005b600080fd5b3480156100fc57600080fd5b506101056102ae565b6040519081526020015b60405180910390f35b34801561012457600080fd5b50610105610133366004610628565b60026020526000908152604090205481565b34801561015157600080fd5b5061010560035481565b34801561016757600080fd5b506100e96102d3565b34801561017c57600080fd5b50610105670de0b6b3a764000081565b34801561019857600080fd5b506100e9610446565b3480156101ad57600080fd5b506004546101bb9060ff1681565b604051901515815260200161010f565b3480156101d757600080fd5b506001546101eb906001600160a01b031681565b6040516001600160a01b03909116815260200161010f565b4260035410156102505760405162461bcd60e51b8152602060048201526018602482015277646561646c696e6520686173206d657420616c726561647960401b60448201526064016100d8565b336000908152600260205260408120805434929061026f9084906106bf565b9091555050604080513381523460208201527febedb8b3c678666e7f36970bc8f57abf6d8fa2e828c0da91ea5b75bf68ed101a910160405180910390a1565b60006003544210156102cd57426003546102c891906106d7565b905090565b50600090565b6102db6105ce565b600160009054906101000a90046001600160a01b03166001600160a01b0316639d9a7fe96040518163ffffffff1660e01b815260040160206040518083038186803b15801561032957600080fd5b505afa15801561033d573d6000803e3d6000fd5b505050506040513d601f19601f820116820180604052508101906103619190610656565b1561037e5760405162461bcd60e51b81526004016100d890610676565b60045460ff166103d05760405162461bcd60e51b815260206004820152601b60248201527f6e6f74206f70656e20666f72207769746864726177616c20796574000000000060448201526064016100d8565b3360008181526002602052604080822054905190929183919081818185875af1925050503d8060008114610420576040519150601f19603f3d011682016040523d82523d6000602084013e610425565b606091505b5050336000908152600260205260408120555061044490506001600055565b565b61044e6105ce565b600160009054906101000a90046001600160a01b03166001600160a01b0316639d9a7fe96040518163ffffffff1660e01b815260040160206040518083038186803b15801561049c57600080fd5b505afa1580156104b0573d6000803e3d6000fd5b505050506040513d601f19601f820116820180604052508101906104d49190610656565b156104f15760405162461bcd60e51b81526004016100d890610676565b42600354106105395760405162461bcd60e51b8152602060048201526014602482015273191958591b1a5b99481b9bdd081b595d081e595d60621b60448201526064016100d8565b670de0b6b3a764000047106105b657600160009054906101000a90046001600160a01b03166001600160a01b031663522e1177476040518263ffffffff1660e01b81526004016000604051808303818588803b15801561059857600080fd5b505af11580156105ac573d6000803e3d6000fd5b50505050506105c4565b6004805460ff191660011790555b6104446001600055565b600260005414156106215760405162461bcd60e51b815260206004820152601f60248201527f5265656e7472616e637947756172643a207265656e7472616e742063616c6c0060448201526064016100d8565b6002600055565b600060208284031215610639578081fd5b81356001600160a01b038116811461064f578182fd5b9392505050565b600060208284031215610667578081fd5b8151801515811461064f578182fd5b60208082526029908201527f416374696f6e206e6f7420616c6c6f7765643a20636f6e74726163742069732060408201526818dbdb5c1b195d195960ba1b606082015260800190565b600082198211156106d2576106d26106ee565b500190565b6000828210156106e9576106e96106ee565b500390565b634e487b7160e01b600052601160045260246000fdfea26469706673582212200772359abbc27bbde73ac575ad389cb2809f1c5e4de2915b875aa2a47dedda4764736f6c63430008040033",
  "devdoc": {
    "kind": "dev",
    "methods": {},
    "version": 1
  },
  "userdoc": {
    "kind": "user",
    "methods": {},
    "version": 1
  },
  "storageLayout": {
    "storage": [
      {
        "astId": 10,
        "contract": "contracts/Staker.sol:Staker",
        "label": "_status",
        "offset": 0,
        "slot": "0",
        "type": "t_uint256"
      },
      {
        "astId": 76,
        "contract": "contracts/Staker.sol:Staker",
        "label": "exampleExternalContract",
        "offset": 0,
        "slot": "1",
        "type": "t_contract(ExampleExternalContract)66"
      },
      {
        "astId": 80,
        "contract": "contracts/Staker.sol:Staker",
        "label": "balances",
        "offset": 0,
        "slot": "2",
        "type": "t_mapping(t_address,t_uint256)"
      },
      {
        "astId": 89,
        "contract": "contracts/Staker.sol:Staker",
        "label": "deadline",
        "offset": 0,
        "slot": "3",
        "type": "t_uint256"
      },
      {
        "astId": 92,
        "contract": "contracts/Staker.sol:Staker",
        "label": "openForWithdraw",
        "offset": 0,
        "slot": "4",
        "type": "t_bool"
      }
    ],
    "types": {
      "t_address": {
        "encoding": "inplace",
        "label": "address",
        "numberOfBytes": "20"
      },
      "t_bool": {
        "encoding": "inplace",
        "label": "bool",
        "numberOfBytes": "1"
      },
      "t_contract(ExampleExternalContract)66": {
        "encoding": "inplace",
        "label": "contract ExampleExternalContract",
        "numberOfBytes": "20"
      },
      "t_mapping(t_address,t_uint256)": {
        "encoding": "mapping",
        "key": "t_address",
        "label": "mapping(address => uint256)",
        "numberOfBytes": "32",
        "value": "t_uint256"
      },
      "t_uint256": {
        "encoding": "inplace",
        "label": "uint256",
        "numberOfBytes": "32"
      }
    }
  }
}